{
    "_format": "hh-sol-artifact-1",
    "contractName": "ChethFund",
    "sourceName": "contracts/ChethFund.sol",
    "abi": [
        {
            "inputs": [
                {
                    "internalType": "uint256",
                    "name": "_memberSize",
                    "type": "uint256"
                },
                {
                    "internalType": "uint256",
                    "name": "_chitAmount",
                    "type": "uint256"
                }
            ],
            "stateMutability": "nonpayable",
            "type": "constructor"
        },
        {
            "anonymous": false,
            "inputs": [
                {
                    "indexed": true,
                    "internalType": "address",
                    "name": "beneficiary",
                    "type": "address"
                },
                {
                    "indexed": false,
                    "internalType": "uint256",
                    "name": "bidAmount",
                    "type": "uint256"
                }
            ],
            "name": "BeneficiaryUpdated",
            "type": "event"
        },
        {
            "anonymous": false,
            "inputs": [
                {
                    "indexed": true,
                    "internalType": "address",
                    "name": "member",
                    "type": "address"
                },
                {
                    "indexed": false,
                    "internalType": "uint256",
                    "name": "amount",
                    "type": "uint256"
                }
            ],
            "name": "ChitDeposited",
            "type": "event"
        },
        {
            "anonymous": false,
            "inputs": [],
            "name": "ContractClosed",
            "type": "event"
        },
        {
            "anonymous": false,
            "inputs": [
                {
                    "indexed": false,
                    "internalType": "uint256",
                    "name": "dividendAmount",
                    "type": "uint256"
                },
                {
                    "indexed": false,
                    "internalType": "uint256",
                    "name": "remainingMonths",
                    "type": "uint256"
                }
            ],
            "name": "DividendDistributed",
            "type": "event"
        },
        {
            "anonymous": false,
            "inputs": [
                {
                    "indexed": true,
                    "internalType": "address",
                    "name": "currentBeneficiary",
                    "type": "address"
                },
                {
                    "indexed": false,
                    "internalType": "uint256",
                    "name": "amount",
                    "type": "uint256"
                }
            ],
            "name": "Withdraw",
            "type": "event"
        },
        {
            "inputs": [
                {
                    "internalType": "uint256",
                    "name": "_bidAmount",
                    "type": "uint256"
                }
            ],
            "name": "bid",
            "outputs": [],
            "stateMutability": "nonpayable",
            "type": "function"
        },
        {
            "inputs": [],
            "name": "chitAmount",
            "outputs": [
                {
                    "internalType": "uint256",
                    "name": "",
                    "type": "uint256"
                }
            ],
            "stateMutability": "view",
            "type": "function"
        },
        {
            "inputs": [],
            "name": "chitValue",
            "outputs": [
                {
                    "internalType": "uint256",
                    "name": "",
                    "type": "uint256"
                }
            ],
            "stateMutability": "view",
            "type": "function"
        },
        {
            "inputs": [],
            "name": "contractActive",
            "outputs": [
                {
                    "internalType": "bool",
                    "name": "",
                    "type": "bool"
                }
            ],
            "stateMutability": "view",
            "type": "function"
        },
        {
            "inputs": [],
            "name": "contractManager",
            "outputs": [
                {
                    "internalType": "address",
                    "name": "",
                    "type": "address"
                }
            ],
            "stateMutability": "view",
            "type": "function"
        },
        {
            "inputs": [],
            "name": "currentBeneficiary",
            "outputs": [
                {
                    "internalType": "address payable",
                    "name": "",
                    "type": "address"
                }
            ],
            "stateMutability": "view",
            "type": "function"
        },
        {
            "inputs": [],
            "name": "currentBidAmount",
            "outputs": [
                {
                    "internalType": "uint256",
                    "name": "",
                    "type": "uint256"
                }
            ],
            "stateMutability": "view",
            "type": "function"
        },
        {
            "inputs": [],
            "name": "depositChit",
            "outputs": [],
            "stateMutability": "payable",
            "type": "function"
        },
        {
            "inputs": [],
            "name": "distributeFunds",
            "outputs": [],
            "stateMutability": "payable",
            "type": "function"
        },
        {
            "inputs": [],
            "name": "getBalance",
            "outputs": [
                {
                    "internalType": "uint256",
                    "name": "",
                    "type": "uint256"
                }
            ],
            "stateMutability": "view",
            "type": "function"
        },
        {
            "inputs": [],
            "name": "memberSize",
            "outputs": [
                {
                    "internalType": "uint256",
                    "name": "",
                    "type": "uint256"
                }
            ],
            "stateMutability": "view",
            "type": "function"
        },
        {
            "inputs": [
                {
                    "internalType": "address",
                    "name": "",
                    "type": "address"
                }
            ],
            "name": "paidMembers",
            "outputs": [
                {
                    "internalType": "bool",
                    "name": "",
                    "type": "bool"
                }
            ],
            "stateMutability": "view",
            "type": "function"
        },
        {
            "inputs": [
                {
                    "internalType": "uint256",
                    "name": "",
                    "type": "uint256"
                }
            ],
            "name": "paidMembersList",
            "outputs": [
                {
                    "internalType": "address payable",
                    "name": "",
                    "type": "address"
                }
            ],
            "stateMutability": "view",
            "type": "function"
        },
        {
            "inputs": [],
            "name": "remainingMonths",
            "outputs": [
                {
                    "internalType": "uint256",
                    "name": "",
                    "type": "uint256"
                }
            ],
            "stateMutability": "view",
            "type": "function"
        }
    ],
    "bytecode": "0x608060405273dd870fa1b7c4700f2bd7f44238821c26f7392148600560016101000a81548173ffffffffffffffffffffffffffffffffffffffff021916908373ffffffffffffffffffffffffffffffffffffffff1602179055503480156200006657600080fd5b50604051620018023803806200180283398181016040528101906200008c91906200015e565b336000806101000a81548173ffffffffffffffffffffffffffffffffffffffff021916908373ffffffffffffffffffffffffffffffffffffffff1602179055508160018190555080600381905550600154600354620000ec9190620001d4565b6002819055506001546004819055506001600560006101000a81548160ff02191690831515021790555050506200021f565b600080fd5b6000819050919050565b620001388162000123565b81146200014457600080fd5b50565b60008151905062000158816200012d565b92915050565b600080604083850312156200017857620001776200011e565b5b6000620001888582860162000147565b92505060206200019b8582860162000147565b9150509250929050565b7f4e487b7100000000000000000000000000000000000000000000000000000000600052601160045260246000fd5b6000620001e18262000123565b9150620001ee8362000123565b9250828202620001fe8162000123565b91508282048414831517620002185762000217620001a5565b5b5092915050565b6115d3806200022f6000396000f3fe6080604052600436106100dd5760003560e01c806392ef91f71161007f578063b39e12cf11610059578063b39e12cf1461025e578063c300583314610289578063e289fcb6146102b4578063ffdc62e8146102df576100dd565b806392ef91f7146101ec578063952aabc7146102295780639f6cf48e14610254576100dd565b80633b9dc05b116100bb5780633b9dc05b14610142578063454a2ab31461016d57806368fba92f146101965780638763d998146101c1576100dd565b806301a1a72a146100e257806312065fe01461010d5780633a6a4d2e14610138575b600080fd5b3480156100ee57600080fd5b506100f761031c565b6040516101049190610f2a565b60405180910390f35b34801561011957600080fd5b50610122610322565b60405161012f9190610f2a565b60405180910390f35b61014061032a565b005b34801561014e57600080fd5b50610157610a16565b6040516101649190610f2a565b60405180910390f35b34801561017957600080fd5b50610194600480360381019061018f9190610f76565b610a1c565b005b3480156101a257600080fd5b506101ab610b91565b6040516101b89190610f2a565b60405180910390f35b3480156101cd57600080fd5b506101d6610b97565b6040516101e39190610f2a565b60405180910390f35b3480156101f857600080fd5b50610213600480360381019061020e9190611001565b610b9d565b6040516102209190611049565b60405180910390f35b34801561023557600080fd5b5061023e610bbd565b60405161024b9190611085565b60405180910390f35b61025c610be3565b005b34801561026a57600080fd5b50610273610e57565b60405161028091906110af565b60405180910390f35b34801561029557600080fd5b5061029e610e7b565b6040516102ab9190610f2a565b60405180910390f35b3480156102c057600080fd5b506102c9610e81565b6040516102d69190611049565b60405180910390f35b3480156102eb57600080fd5b5061030660048036038101906103019190610f76565b610e94565b6040516103139190611085565b60405180910390f35b60045481565b600047905090565b600560009054906101000a900460ff16610379576040517f08c379a000000000000000000000000000000000000000000000000000000000815260040161037090611127565b60405180910390fd5b600154600680549050146103c2576040517f08c379a00000000000000000000000000000000000000000000000000000000081526004016103b990611193565b60405180910390fd5b60008054906101000a900473ffffffffffffffffffffffffffffffffffffffff1673ffffffffffffffffffffffffffffffffffffffff163373ffffffffffffffffffffffffffffffffffffffff1614610450576040517f08c379a0000000000000000000000000000000000000000000000000000000008152600401610447906111ff565b60405180910390fd5b600047905060006064600283610466919061124e565b61047091906112bf565b90506000818361048091906112f0565b9050600560019054906101000a900473ffffffffffffffffffffffffffffffffffffffff1673ffffffffffffffffffffffffffffffffffffffff166108fc839081150290604051600060405180830381858888f193505050501580156104ea573d6000803e3d6000fd5b50600073ffffffffffffffffffffffffffffffffffffffff16600960009054906101000a900473ffffffffffffffffffffffffffffffffffffffff1673ffffffffffffffffffffffffffffffffffffffff16036106d35760006001548261055191906112bf565b905060005b600680549050811015610691576006818154811061057757610576611324565b5b9060005260206000200160009054906101000a900473ffffffffffffffffffffffffffffffffffffffff1673ffffffffffffffffffffffffffffffffffffffff166108fc839081150290604051600060405180830381858888f193505050501580156105e7573d6000803e3d6000fd5b506000600760006006848154811061060257610601611324565b5b9060005260206000200160009054906101000a900473ffffffffffffffffffffffffffffffffffffffff1673ffffffffffffffffffffffffffffffffffffffff1673ffffffffffffffffffffffffffffffffffffffff16815260200190815260200160002060006101000a81548160ff021916908315150217905550808061068990611353565b915050610556565b507f2f588cf4bb0247b0f3f60e06187f92e6fd1deaabb56e2bcc5672352337871327816004546040516106c592919061139b565b60405180910390a150610967565b6000600854826106e391906112f0565b905060006001546008546106f791906112bf565b9050600960009054906101000a900473ffffffffffffffffffffffffffffffffffffffff1673ffffffffffffffffffffffffffffffffffffffff166108fc839081150290604051600060405180830381858888f19350505050158015610761573d6000803e3d6000fd5b50600960009054906101000a900473ffffffffffffffffffffffffffffffffffffffff1673ffffffffffffffffffffffffffffffffffffffff167f884edad9ce6fa2440d8a54cc123490eb96d2768479d49ff9c7366125a9424364836040516107ca9190610f2a565b60405180910390a260005b60068054905081101561091057600681815481106107f6576107f5611324565b5b9060005260206000200160009054906101000a900473ffffffffffffffffffffffffffffffffffffffff1673ffffffffffffffffffffffffffffffffffffffff166108fc839081150290604051600060405180830381858888f19350505050158015610866573d6000803e3d6000fd5b506000600760006006848154811061088157610880611324565b5b9060005260206000200160009054906101000a900473ffffffffffffffffffffffffffffffffffffffff1673ffffffffffffffffffffffffffffffffffffffff1673ffffffffffffffffffffffffffffffffffffffff16815260200190815260200160002060006101000a81548160ff021916908315150217905550808061090890611353565b9150506107d5565b5060046000815480929190610924906113c4565b91905055507f2f588cf4bb0247b0f3f60e06187f92e6fd1deaabb56e2bcc56723523378713278160045460405161095c92919061139b565b60405180910390a150505b600660006109759190610ed3565b6000600960006101000a81548173ffffffffffffffffffffffffffffffffffffffff021916908373ffffffffffffffffffffffffffffffffffffffff1602179055506000600881905550600060045403610a11576000600560006101000a81548160ff0219169083151502179055507fd82cb6955c60c6c25284c5cabf68a57f28fd3d35b0ad5865609919fbd4c89c1d60405160405180910390a15b505050565b60085481565b600560009054906101000a900460ff16610a6b576040517f08c379a0000000000000000000000000000000000000000000000000000000008152600401610a6290611127565b60405180910390fd5b60015460068054905014610ab4576040517f08c379a0000000000000000000000000000000000000000000000000000000008152600401610aab90611193565b60405180910390fd5b6008548111610af8576040517f08c379a0000000000000000000000000000000000000000000000000000000008152600401610aef90611439565b60405180910390fd5b8060088190555033600960006101000a81548173ffffffffffffffffffffffffffffffffffffffff021916908373ffffffffffffffffffffffffffffffffffffffff1602179055503373ffffffffffffffffffffffffffffffffffffffff167f73d60fa978f046c1ccf0f85c6247b34d322ad63d5184881ef2f10bf3c70dde2182604051610b869190610f2a565b60405180910390a250565b60025481565b60035481565b60076020528060005260406000206000915054906101000a900460ff1681565b600960009054906101000a900473ffffffffffffffffffffffffffffffffffffffff1681565b600560009054906101000a900460ff16610c32576040517f08c379a0000000000000000000000000000000000000000000000000000000008152600401610c2990611127565b60405180910390fd5b6003543414610c76576040517f08c379a0000000000000000000000000000000000000000000000000000000008152600401610c6d906114a5565b60405180910390fd5b600760003373ffffffffffffffffffffffffffffffffffffffff1673ffffffffffffffffffffffffffffffffffffffff16815260200190815260200160002060009054906101000a900460ff1615610d03576040517f08c379a0000000000000000000000000000000000000000000000000000000008152600401610cfa90611511565b60405180910390fd5b60015460068054905010610d4c576040517f08c379a0000000000000000000000000000000000000000000000000000000008152600401610d439061157d565b60405180910390fd5b6001600760003373ffffffffffffffffffffffffffffffffffffffff1673ffffffffffffffffffffffffffffffffffffffff16815260200190815260200160002060006101000a81548160ff0219169083151502179055506006339080600181540180825580915050600190039060005260206000200160009091909190916101000a81548173ffffffffffffffffffffffffffffffffffffffff021916908373ffffffffffffffffffffffffffffffffffffffff1602179055503373ffffffffffffffffffffffffffffffffffffffff167f9ebae79c998dde5b970dc0238aa0f77005646f11210d6a38bf60ef5fb286562434604051610e4d9190610f2a565b60405180910390a2565b60008054906101000a900473ffffffffffffffffffffffffffffffffffffffff1681565b60015481565b600560009054906101000a900460ff1681565b60068181548110610ea457600080fd5b906000526020600020016000915054906101000a900473ffffffffffffffffffffffffffffffffffffffff1681565b5080546000825590600052602060002090810190610ef19190610ef4565b50565b5b80821115610f0d576000816000905550600101610ef5565b5090565b6000819050919050565b610f2481610f11565b82525050565b6000602082019050610f3f6000830184610f1b565b92915050565b600080fd5b610f5381610f11565b8114610f5e57600080fd5b50565b600081359050610f7081610f4a565b92915050565b600060208284031215610f8c57610f8b610f45565b5b6000610f9a84828501610f61565b91505092915050565b600073ffffffffffffffffffffffffffffffffffffffff82169050919050565b6000610fce82610fa3565b9050919050565b610fde81610fc3565b8114610fe957600080fd5b50565b600081359050610ffb81610fd5565b92915050565b60006020828403121561101757611016610f45565b5b600061102584828501610fec565b91505092915050565b60008115159050919050565b6110438161102e565b82525050565b600060208201905061105e600083018461103a565b92915050565b600061106f82610fa3565b9050919050565b61107f81611064565b82525050565b600060208201905061109a6000830184611076565b92915050565b6110a981610fc3565b82525050565b60006020820190506110c460008301846110a0565b92915050565b600082825260208201905092915050565b7f434845544846554e445f494e4143544956450000000000000000000000000000600082015250565b60006111116012836110ca565b915061111c826110db565b602082019050919050565b6000602082019050818103600083015261114081611104565b9050919050565b7f4e4f545f414c4c5f4d454d424552535f50414944000000000000000000000000600082015250565b600061117d6014836110ca565b915061118882611147565b602082019050919050565b600060208201905081810360008301526111ac81611170565b9050919050565b7f4e4f545f414c4c4f574544000000000000000000000000000000000000000000600082015250565b60006111e9600b836110ca565b91506111f4826111b3565b602082019050919050565b60006020820190508181036000830152611218816111dc565b9050919050565b7f4e487b7100000000000000000000000000000000000000000000000000000000600052601160045260246000fd5b600061125982610f11565b915061126483610f11565b925082820261127281610f11565b915082820484148315176112895761128861121f565b5b5092915050565b7f4e487b7100000000000000000000000000000000000000000000000000000000600052601260045260246000fd5b60006112ca82610f11565b91506112d583610f11565b9250826112e5576112e4611290565b5b828204905092915050565b60006112fb82610f11565b915061130683610f11565b925082820390508181111561131e5761131d61121f565b5b92915050565b7f4e487b7100000000000000000000000000000000000000000000000000000000600052603260045260246000fd5b600061135e82610f11565b91507fffffffffffffffffffffffffffffffffffffffffffffffffffffffffffffffff82036113905761138f61121f565b5b600182019050919050565b60006040820190506113b06000830185610f1b565b6113bd6020830184610f1b565b9392505050565b60006113cf82610f11565b9150600082036113e2576113e161121f565b5b600182039050919050565b7f4249445f56414c55455f4c4553535f5448414e5f43555252454e544249440000600082015250565b6000611423601e836110ca565b915061142e826113ed565b602082019050919050565b6000602082019050818103600083015261145281611416565b9050919050565b7f4445504f5349545f4d49534d4154434800000000000000000000000000000000600082015250565b600061148f6010836110ca565b915061149a82611459565b602082019050919050565b600060208201905081810360008301526114be81611482565b9050919050565b7f414c52454144595f4445504f5349544544000000000000000000000000000000600082015250565b60006114fb6011836110ca565b9150611506826114c5565b602082019050919050565b6000602082019050818103600083015261152a816114ee565b9050919050565b7f4d41585f4d454d424552535f5245414348454400000000000000000000000000600082015250565b60006115676013836110ca565b915061157282611531565b602082019050919050565b600060208201905081810360008301526115968161155a565b905091905056fea26469706673582212201bce0e99845ee1f0fbb1a84f462972f122cf46bbcfe68b5e4a2332d4574a10d164736f6c63430008110033",
    "linkReferences": {},
    "deployedLinkReferences": {}
}