{
  "_format": "hh-sol-artifact-1",
  "contractName": "ChethFund",
  "sourceName": "contracts/ChethFund.sol",
  "abi": [
    {
      "inputs": [
        {
          "internalType": "uint256",
          "name": "_memberSize",
          "type": "uint256"
        },
        {
          "internalType": "uint256",
          "name": "_chitAmount",
          "type": "uint256"
        }
      ],
      "stateMutability": "nonpayable",
      "type": "constructor"
    },
    {
      "anonymous": false,
      "inputs": [
        {
          "indexed": true,
          "internalType": "address",
          "name": "beneficiary",
          "type": "address"
        },
        {
          "indexed": false,
          "internalType": "uint256",
          "name": "bidAmount",
          "type": "uint256"
        }
      ],
      "name": "BeneficiaryUpdated",
      "type": "event"
    },
    {
      "anonymous": false,
      "inputs": [
        {
          "indexed": true,
          "internalType": "address",
          "name": "member",
          "type": "address"
        },
        {
          "indexed": false,
          "internalType": "uint256",
          "name": "amount",
          "type": "uint256"
        }
      ],
      "name": "ChitDeposited",
      "type": "event"
    },
    {
      "anonymous": false,
      "inputs": [],
      "name": "ContractClosed",
      "type": "event"
    },
    {
      "anonymous": false,
      "inputs": [
        {
          "indexed": false,
          "internalType": "uint256",
          "name": "dividendAmount",
          "type": "uint256"
        },
        {
          "indexed": false,
          "internalType": "uint256",
          "name": "remainingMonths",
          "type": "uint256"
        }
      ],
      "name": "DividendDistributed",
      "type": "event"
    },
    {
      "anonymous": false,
      "inputs": [
        {
          "indexed": true,
          "internalType": "address",
          "name": "currentBeneficiary",
          "type": "address"
        },
        {
          "indexed": false,
          "internalType": "uint256",
          "name": "amount",
          "type": "uint256"
        }
      ],
      "name": "Withdraw",
      "type": "event"
    },
    {
      "inputs": [
        {
          "internalType": "uint256",
          "name": "_bidAmount",
          "type": "uint256"
        }
      ],
      "name": "bid",
      "outputs": [],
      "stateMutability": "nonpayable",
      "type": "function"
    },
    {
      "inputs": [],
      "name": "chitAmount",
      "outputs": [
        {
          "internalType": "uint256",
          "name": "",
          "type": "uint256"
        }
      ],
      "stateMutability": "view",
      "type": "function"
    },
    {
      "inputs": [],
      "name": "chitValue",
      "outputs": [
        {
          "internalType": "uint256",
          "name": "",
          "type": "uint256"
        }
      ],
      "stateMutability": "view",
      "type": "function"
    },
    {
      "inputs": [],
      "name": "contractActive",
      "outputs": [
        {
          "internalType": "bool",
          "name": "",
          "type": "bool"
        }
      ],
      "stateMutability": "view",
      "type": "function"
    },
    {
      "inputs": [],
      "name": "contractManager",
      "outputs": [
        {
          "internalType": "address",
          "name": "",
          "type": "address"
        }
      ],
      "stateMutability": "view",
      "type": "function"
    },
    {
      "inputs": [],
      "name": "currentBeneficiary",
      "outputs": [
        {
          "internalType": "address payable",
          "name": "",
          "type": "address"
        }
      ],
      "stateMutability": "view",
      "type": "function"
    },
    {
      "inputs": [],
      "name": "currentBidAmount",
      "outputs": [
        {
          "internalType": "uint256",
          "name": "",
          "type": "uint256"
        }
      ],
      "stateMutability": "view",
      "type": "function"
    },
    {
      "inputs": [],
      "name": "depositChit",
      "outputs": [],
      "stateMutability": "payable",
      "type": "function"
    },
    {
      "inputs": [],
      "name": "distributeFunds",
      "outputs": [],
      "stateMutability": "payable",
      "type": "function"
    },
    {
      "inputs": [],
      "name": "getBalance",
      "outputs": [
        {
          "internalType": "uint256",
          "name": "",
          "type": "uint256"
        }
      ],
      "stateMutability": "view",
      "type": "function"
    },
    {
      "inputs": [],
      "name": "memberSize",
      "outputs": [
        {
          "internalType": "uint256",
          "name": "",
          "type": "uint256"
        }
      ],
      "stateMutability": "view",
      "type": "function"
    },
    {
      "inputs": [
        {
          "internalType": "address",
          "name": "",
          "type": "address"
        }
      ],
      "name": "paidMembers",
      "outputs": [
        {
          "internalType": "bool",
          "name": "",
          "type": "bool"
        }
      ],
      "stateMutability": "view",
      "type": "function"
    },
    {
      "inputs": [
        {
          "internalType": "uint256",
          "name": "",
          "type": "uint256"
        }
      ],
      "name": "paidMembersList",
      "outputs": [
        {
          "internalType": "address payable",
          "name": "",
          "type": "address"
        }
      ],
      "stateMutability": "view",
      "type": "function"
    },
    {
      "inputs": [],
      "name": "remainingMonths",
      "outputs": [
        {
          "internalType": "uint256",
          "name": "",
          "type": "uint256"
        }
      ],
      "stateMutability": "view",
      "type": "function"
    }
  ],
  "bytecode": "0x608060405273dd870fa1b7c4700f2bd7f44238821c26f7392148600560016101000a81548173ffffffffffffffffffffffffffffffffffffffff021916908373ffffffffffffffffffffffffffffffffffffffff16021790555034801561006557600080fd5b5060405161179038038061179083398181016040528101906100879190610151565b336000806101000a81548173ffffffffffffffffffffffffffffffffffffffff021916908373ffffffffffffffffffffffffffffffffffffffff16021790555081600181905550806003819055506001546003546100e591906101c0565b6002819055506001546004819055506001600560006101000a81548160ff0219169083151502179055505050610202565b600080fd5b6000819050919050565b61012e8161011b565b811461013957600080fd5b50565b60008151905061014b81610125565b92915050565b6000806040838503121561016857610167610116565b5b60006101768582860161013c565b92505060206101878582860161013c565b9150509250929050565b7f4e487b7100000000000000000000000000000000000000000000000000000000600052601160045260246000fd5b60006101cb8261011b565b91506101d68361011b565b92508282026101e48161011b565b915082820484148315176101fb576101fa610191565b5b5092915050565b61157f806102116000396000f3fe6080604052600436106100dd5760003560e01c806392ef91f71161007f578063b39e12cf11610059578063b39e12cf1461025e578063c300583314610289578063e289fcb6146102b4578063ffdc62e8146102df576100dd565b806392ef91f7146101ec578063952aabc7146102295780639f6cf48e14610254576100dd565b80633b9dc05b116100bb5780633b9dc05b14610142578063454a2ab31461016d57806368fba92f146101965780638763d998146101c1576100dd565b806301a1a72a146100e257806312065fe01461010d5780633a6a4d2e14610138575b600080fd5b3480156100ee57600080fd5b506100f761031c565b6040516101049190610f1e565b60405180910390f35b34801561011957600080fd5b50610122610322565b60405161012f9190610f1e565b60405180910390f35b61014061032a565b005b34801561014e57600080fd5b50610157610a0a565b6040516101649190610f1e565b60405180910390f35b34801561017957600080fd5b50610194600480360381019061018f9190610f6a565b610a10565b005b3480156101a257600080fd5b506101ab610b85565b6040516101b89190610f1e565b60405180910390f35b3480156101cd57600080fd5b506101d6610b8b565b6040516101e39190610f1e565b60405180910390f35b3480156101f857600080fd5b50610213600480360381019061020e9190610ff5565b610b91565b604051610220919061103d565b60405180910390f35b34801561023557600080fd5b5061023e610bb1565b60405161024b9190611079565b60405180910390f35b61025c610bd7565b005b34801561026a57600080fd5b50610273610e4b565b60405161028091906110a3565b60405180910390f35b34801561029557600080fd5b5061029e610e6f565b6040516102ab9190610f1e565b60405180910390f35b3480156102c057600080fd5b506102c9610e75565b6040516102d6919061103d565b60405180910390f35b3480156102eb57600080fd5b5061030660048036038101906103019190610f6a565b610e88565b6040516103139190611079565b60405180910390f35b60045481565b600047905090565b600560009054906101000a900460ff16610379576040517f08c379a00000000000000000000000000000000000000000000000000000000081526004016103709061111b565b60405180910390fd5b600154600680549050146103c2576040517f08c379a00000000000000000000000000000000000000000000000000000000081526004016103b990611187565b60405180910390fd5b60008054906101000a900473ffffffffffffffffffffffffffffffffffffffff1673ffffffffffffffffffffffffffffffffffffffff163373ffffffffffffffffffffffffffffffffffffffff1614610450576040517f08c379a0000000000000000000000000000000000000000000000000000000008152600401610447906111f3565b60405180910390fd5b6000479050600060646002836104669190611242565b61047091906112b3565b90506000818361048091906112e4565b9050600560019054906101000a900473ffffffffffffffffffffffffffffffffffffffff1673ffffffffffffffffffffffffffffffffffffffff166108fc839081150290604051600060405180830381858888f193505050501580156104ea573d6000803e3d6000fd5b50600073ffffffffffffffffffffffffffffffffffffffff16600960009054906101000a900473ffffffffffffffffffffffffffffffffffffffff1673ffffffffffffffffffffffffffffffffffffffff16036106cd5760006001548261055191906112b3565b905060005b60068054905081101561068b576006818154811061057757610576611318565b5b9060005260206000200160009054906101000a900473ffffffffffffffffffffffffffffffffffffffff1673ffffffffffffffffffffffffffffffffffffffff166108fc839081150290604051600060405180830381858888f193505050501580156105e7573d6000803e3d6000fd5b506000600760006006848154811061060257610601611318565b5b9060005260206000200160009054906101000a900473ffffffffffffffffffffffffffffffffffffffff1673ffffffffffffffffffffffffffffffffffffffff1673ffffffffffffffffffffffffffffffffffffffff16815260200190815260200160002060006101000a81548160ff0219169083151502179055508080600101915050610556565b507f2f588cf4bb0247b0f3f60e06187f92e6fd1deaabb56e2bcc5672352337871327816004546040516106bf929190611347565b60405180910390a15061095b565b6000600854826106dd91906112e4565b905060006001546008546106f191906112b3565b9050600960009054906101000a900473ffffffffffffffffffffffffffffffffffffffff1673ffffffffffffffffffffffffffffffffffffffff166108fc839081150290604051600060405180830381858888f1935050505015801561075b573d6000803e3d6000fd5b50600960009054906101000a900473ffffffffffffffffffffffffffffffffffffffff1673ffffffffffffffffffffffffffffffffffffffff167f884edad9ce6fa2440d8a54cc123490eb96d2768479d49ff9c7366125a9424364836040516107c49190610f1e565b60405180910390a260005b60068054905081101561090457600681815481106107f0576107ef611318565b5b9060005260206000200160009054906101000a900473ffffffffffffffffffffffffffffffffffffffff1673ffffffffffffffffffffffffffffffffffffffff166108fc839081150290604051600060405180830381858888f19350505050158015610860573d6000803e3d6000fd5b506000600760006006848154811061087b5761087a611318565b5b9060005260206000200160009054906101000a900473ffffffffffffffffffffffffffffffffffffffff1673ffffffffffffffffffffffffffffffffffffffff1673ffffffffffffffffffffffffffffffffffffffff16815260200190815260200160002060006101000a81548160ff02191690831515021790555080806001019150506107cf565b506004600081548092919061091890611370565b91905055507f2f588cf4bb0247b0f3f60e06187f92e6fd1deaabb56e2bcc567235233787132781600454604051610950929190611347565b60405180910390a150505b600660006109699190610ec7565b6000600960006101000a81548173ffffffffffffffffffffffffffffffffffffffff021916908373ffffffffffffffffffffffffffffffffffffffff1602179055506000600881905550600060045403610a05576000600560006101000a81548160ff0219169083151502179055507fd82cb6955c60c6c25284c5cabf68a57f28fd3d35b0ad5865609919fbd4c89c1d60405160405180910390a15b505050565b60085481565b600560009054906101000a900460ff16610a5f576040517f08c379a0000000000000000000000000000000000000000000000000000000008152600401610a569061111b565b60405180910390fd5b60015460068054905014610aa8576040517f08c379a0000000000000000000000000000000000000000000000000000000008152600401610a9f90611187565b60405180910390fd5b6008548111610aec576040517f08c379a0000000000000000000000000000000000000000000000000000000008152600401610ae3906113e5565b60405180910390fd5b8060088190555033600960006101000a81548173ffffffffffffffffffffffffffffffffffffffff021916908373ffffffffffffffffffffffffffffffffffffffff1602179055503373ffffffffffffffffffffffffffffffffffffffff167f73d60fa978f046c1ccf0f85c6247b34d322ad63d5184881ef2f10bf3c70dde2182604051610b7a9190610f1e565b60405180910390a250565b60025481565b60035481565b60076020528060005260406000206000915054906101000a900460ff1681565b600960009054906101000a900473ffffffffffffffffffffffffffffffffffffffff1681565b600560009054906101000a900460ff16610c26576040517f08c379a0000000000000000000000000000000000000000000000000000000008152600401610c1d9061111b565b60405180910390fd5b6003543414610c6a576040517f08c379a0000000000000000000000000000000000000000000000000000000008152600401610c6190611451565b60405180910390fd5b600760003373ffffffffffffffffffffffffffffffffffffffff1673ffffffffffffffffffffffffffffffffffffffff16815260200190815260200160002060009054906101000a900460ff1615610cf7576040517f08c379a0000000000000000000000000000000000000000000000000000000008152600401610cee906114bd565b60405180910390fd5b60015460068054905010610d40576040517f08c379a0000000000000000000000000000000000000000000000000000000008152600401610d3790611529565b60405180910390fd5b6001600760003373ffffffffffffffffffffffffffffffffffffffff1673ffffffffffffffffffffffffffffffffffffffff16815260200190815260200160002060006101000a81548160ff0219169083151502179055506006339080600181540180825580915050600190039060005260206000200160009091909190916101000a81548173ffffffffffffffffffffffffffffffffffffffff021916908373ffffffffffffffffffffffffffffffffffffffff1602179055503373ffffffffffffffffffffffffffffffffffffffff167f9ebae79c998dde5b970dc0238aa0f77005646f11210d6a38bf60ef5fb286562434604051610e419190610f1e565b60405180910390a2565b60008054906101000a900473ffffffffffffffffffffffffffffffffffffffff1681565b60015481565b600560009054906101000a900460ff1681565b60068181548110610e9857600080fd5b906000526020600020016000915054906101000a900473ffffffffffffffffffffffffffffffffffffffff1681565b5080546000825590600052602060002090810190610ee59190610ee8565b50565b5b80821115610f01576000816000905550600101610ee9565b5090565b6000819050919050565b610f1881610f05565b82525050565b6000602082019050610f336000830184610f0f565b92915050565b600080fd5b610f4781610f05565b8114610f5257600080fd5b50565b600081359050610f6481610f3e565b92915050565b600060208284031215610f8057610f7f610f39565b5b6000610f8e84828501610f55565b91505092915050565b600073ffffffffffffffffffffffffffffffffffffffff82169050919050565b6000610fc282610f97565b9050919050565b610fd281610fb7565b8114610fdd57600080fd5b50565b600081359050610fef81610fc9565b92915050565b60006020828403121561100b5761100a610f39565b5b600061101984828501610fe0565b91505092915050565b60008115159050919050565b61103781611022565b82525050565b6000602082019050611052600083018461102e565b92915050565b600061106382610f97565b9050919050565b61107381611058565b82525050565b600060208201905061108e600083018461106a565b92915050565b61109d81610fb7565b82525050565b60006020820190506110b86000830184611094565b92915050565b600082825260208201905092915050565b7f434845544846554e445f494e4143544956450000000000000000000000000000600082015250565b60006111056012836110be565b9150611110826110cf565b602082019050919050565b60006020820190508181036000830152611134816110f8565b9050919050565b7f4e4f545f414c4c5f4d454d424552535f50414944000000000000000000000000600082015250565b60006111716014836110be565b915061117c8261113b565b602082019050919050565b600060208201905081810360008301526111a081611164565b9050919050565b7f4e4f545f414c4c4f574544000000000000000000000000000000000000000000600082015250565b60006111dd600b836110be565b91506111e8826111a7565b602082019050919050565b6000602082019050818103600083015261120c816111d0565b9050919050565b7f4e487b7100000000000000000000000000000000000000000000000000000000600052601160045260246000fd5b600061124d82610f05565b915061125883610f05565b925082820261126681610f05565b9150828204841483151761127d5761127c611213565b5b5092915050565b7f4e487b7100000000000000000000000000000000000000000000000000000000600052601260045260246000fd5b60006112be82610f05565b91506112c983610f05565b9250826112d9576112d8611284565b5b828204905092915050565b60006112ef82610f05565b91506112fa83610f05565b925082820390508181111561131257611311611213565b5b92915050565b7f4e487b7100000000000000000000000000000000000000000000000000000000600052603260045260246000fd5b600060408201905061135c6000830185610f0f565b6113696020830184610f0f565b9392505050565b600061137b82610f05565b91506000820361138e5761138d611213565b5b600182039050919050565b7f4249445f56414c55455f4c4553535f5448414e5f43555252454e544249440000600082015250565b60006113cf601e836110be565b91506113da82611399565b602082019050919050565b600060208201905081810360008301526113fe816113c2565b9050919050565b7f4445504f5349545f4d49534d4154434800000000000000000000000000000000600082015250565b600061143b6010836110be565b915061144682611405565b602082019050919050565b6000602082019050818103600083015261146a8161142e565b9050919050565b7f414c52454144595f4445504f5349544544000000000000000000000000000000600082015250565b60006114a76011836110be565b91506114b282611471565b602082019050919050565b600060208201905081810360008301526114d68161149a565b9050919050565b7f4d41585f4d454d424552535f5245414348454400000000000000000000000000600082015250565b60006115136013836110be565b915061151e826114dd565b602082019050919050565b6000602082019050818103600083015261154281611506565b905091905056fea2646970667358221220cfe51262ee4430d1e64384be3733bed5327533b860e52dd88425067d8412bd9e64736f6c634300081b0033",
  "linkReferences": {},
  "deployedLinkReferences": {}
}